S01000004175746F537973322E737265630A
S113000049C000004FC000004DC000004BC00000BC
S113001049C0000047C0000045C0000043C00000C4
S113002041C000003FC000003DC000003BC00000D4
S113003039C0000037C0000035C0000033C00000E4
S113004031C000002FC000002DC000002BC00000F4
S113005029C0000027C0000025C0000023C0000004
S113006021C000001FC000001DC000001BC0000014
S113007019C0000017C0000015C0000013C0000024
S113008011C000000FC000000DC000000BC0000034
S113009009C0000011241FBECFEFD0E1DEBFCDBFE9
S11300A05DD0A8C0ADCFCF93DF9300D000D01F9216
S11300B0CDB7DEB78D8386E69EE09A8389834D8132
S11300C029813A81822F932F0197F1F74A95D1F72D
S11300D09C838B830F900F900F900F900F90DF9164
S11300E0CF910895CF93DF9300D0CDB7DEB78A8345
S11300F019820BC08AEFD7DF8AEFD5DF8AEFD3DF0F
S11301008AEFD1DF89818F5F898399818A819817EA
S113011088F30F900F90DF91CF910895CF93DF93E1
S1130120CDB7DEB784E290E024E230E0F90120812B
S11301302068FC01208387E290E027E0FC01208313
S113014083E390E023E330E0F90120812360FC01A4
S1130150208380E090E0DF91CF910895CF93DF93E7
S11301601F92CDB7DEB78FEF8983D8DF898388E20A
S113017090E021E0FC01208384E390E0FC01808195
S113018084E390E0FC01108281E0ACDF88E290E03F
S113019022E0FC01208384E390E022E0FC01208340
S11301A08FEF81DF88E290E024E0FC01208384E388
S11301B090E021E0FC0120838FEF75DF8FEF73DF88
S11301C083E290E0FC018081882354F485E290E08E
S11301D025E230E0F90120812F77FC01208309C05A
S11301E085E290E025E230E0F90120812068FC01FD
S10B01F02083BDCFF894FFCF7A
S9030000FC
