:1000000049C0000057C0000055C0000053C00000A8
:1000100051C000004FC000004DC0000039C10000B9
:1000200049C000005EC1000045C0000043C00000A0
:1000300041C000003FC000003DC000003BC00000C8
:1000400039C0000037C0000035C0000033C00000D8
:1000500031C000002FC000002DC000002BC00000E8
:1000600029C0000027C0000025C0000023C00000F8
:1000700021C000001FC000001DC000001BC0000008
:1000800019C0000017C0000015C0000013C0000018
:1000900011C0000011241FBECFEFD0E1DEBFCDBFE5
:1000A00021E0A0E0B1E001C01D92A530B207E1F768
:1000B000D5D093C1A5CFCF93DF93CDB7DEB784E280
:1000C00090E024E230E0F90120812068FC012083E7
:1000D00087E290E027E0FC01208383E390E023E3C4
:1000E00030E0F90120812360FC01208380E090E072
:1000F000DF91CF910895CF93DF93CDB7DEB78AE636
:1001000090E02AE630E0F90120812061FC012083A3
:100110008DE390E02DE330E0F90120812064FC01C3
:10012000208386E090E0DF91CF910895CF93DF9315
:10013000CDB7DEB780EB90E028E0FC01208380EBB8
:1001400090E020EB30E0F90120812660FC01208363
:1001500082EB90E0FC01108283EB90E02BE9FC0144
:10016000208380E790E022E0FC01208382E090E0A1
:10017000DF91CF910895CF93DF931F92CDB7DEB774
:1001800080910401882331F0809104018150809393
:10019000040160C0809101018093040180910201FB
:1001A0008F71898380910201882F90E0807E99274A
:1001B00080349105C1F08038910519F08097D1F015
:1001C00027C08981880F89838981882F90E0807278
:1001D0009927892B39F089818160898389818F7D75
:1001E000898316C015C089818095898389818F7123
:1001F00089830EC08981882F90E081709927892B8F
:1002000019F08981806289838981869589830000BC
:1002100080910201982F907E8981892B8093020121
:1002200084E390E0FC01808184E390E029812370E5
:10023000FC012083898186958695898388E290E0F8
:1002400028E230E0F9012081322F387F2981232BE9
:10025000FC0120830F90DF91CF910895CF93DF931E
:100260001F92CDB7DEB78FE0898384E480930201CB
:1002700084E680930101109204011DDF89833BDF36
:10028000898354DF8983789489818F5F8983FCCF48
:100290001F920F9200905F000F92112400905B005C
:1002A0000F928F939F93EF93FF93CF93DF93CDB7ED
:1002B000DEB781E08093000186E290E0FC0180815E
:1002C00080930301DF91CF91FF91EF919F918F91E7
:1002D0000F9000925B000F9000925F000F901F90B4
:1002E00018951F920F9200905F000F9211240090BA
:1002F0005B000F922F933F934F935F936F937F9386
:100300008F939F93AF93BF93EF93FF93CF93DF931D
:10031000CDB7DEB780910001882309F446C08091F3
:100320000301882F90E0887F99278032910509F199
:100330008132910534F48830910561F1409711F1D3
:1003400032C08034910569F08038910509F02BC0E6
:10035000809102018F7180648093020110920401E8
:1003600022C0809101018F5F8093010110920401EE
:100370001AC0809102018F718068809302011092EF
:10038000040111C0809101018150809301011092FC
:10039000040109C0809102018F7180628093020183
:1003A00010920401000010920001E5DEDF91CF9170
:1003B000FF91EF91BF91AF919F918F917F916F913D
:1003C0005F914F913F912F910F9000925B000F90A2
:0E03D00000925F000F901F901895F894FFCFD9
:00000001FF
