:100000008DC00000A8C00000A6C00000A4C0000071
:10001000A2C00000A0C000009EC0000082C6000078
:100020009AC00000A8C6000096C0000094C000005E
:1000300092C0000090C000008EC000008CC0000084
:100040008AC0000088C0000086C0000084C0000094
:1000500082C0000080C000007EC000007CC00000A4
:100060007AC00000F5C6000076C0000074C0000031
:1000700072C0000070C000006EC000006CC00000C4
:100080006AC0000068C0000066C0000064C00000D4
:1000900062C00000001F000000001F00001F1010C1
:1000A00010101F00001F181818181F00001F1C1C1C
:1000B0001C1C1F00001F1E1E1E1E1F00001F1F1FD6
:1000C0001F1F1F0003070F1F0F070300001F1F1F25
:1000D0001F1F1F001B1B1B1B1B1B1B00181C1E1F95
:1000E0001E1C18000004040E0E1F1F00001F1F0E10
:1000F0000E0404000000000000000000000E1915AE
:10010000130E0000000E1515150E0000000E13153D
:10011000190E0000000E111F110E000011241FBE49
:10012000CFEFD0E1DEBFCDBF11E0A0E0B1E0E4E66B
:10013000FFE000E00BBF02C007900D92AC31B107A9
:10014000D9F721E0ACE1B1E001C01D92A732B207BE
:10015000E1F755D505C754CFCF93DF9300D000D03A
:100160001F92CDB7DEB78D8380EA9FE09A838983A3
:100170004D8129813A81822F932F0197F1F74A957A
:10018000D1F79C838B8300000F900F900F900F90FE
:100190000F90DF91CF910895CF93DF93CDB7DEB766
:1001A00085E290E025E230E0F90120812F7EFC011C
:1001B000208385E290E025E230E0F90120812F7D67
:1001C000FC01208385E290E025E230E0F901208106
:1001D0002F7BFC01208384E290E024E230E0F901EF
:1001E00020812061FC01208384E290E024E230E061
:1001F000F90120812062FC01208384E290E024E266
:1002000030E0F90120812064FC01208381E290E04C
:10021000FC01108282E290E02FEFFC0120830000BD
:10022000DF91CF910895CF93DF93CDB7DEB785E20D
:1002300090E025E230E0F90120812F7EFC0120834F
:1002400081E290E0FC01108282E290E02FEFFC015D
:10025000208385E290E025E230E0F90120812062F0
:10026000FC01208385E290E025E230E0F901208165
:100270002064FC0120830000000000001EC085E215
:1002800090E025E230E0F90120812F7BFC01208302
:1002900000000000000000000000000085E290E087
:1002A00025E230E0F90120812064FC012083000078
:1002B0000000000000000000000080E290E0FC016F
:1002C00080818823E4F285E290E025E230E0F901C4
:1002D00020812F7BFC0120830000DF91CF910895C6
:1002E000CF93DF931F92CDB7DEB789839CDF85E282
:1002F00090E025E230E0F90120812F7EFC0120838F
:1003000085E290E025E230E0F90120812F7DFC01BB
:10031000208385E290E025E230E0F901208120642D
:10032000FC01208381E290E02FEFFC01208382E238
:1003300090E02981FC012083000000000000000003
:100340000000000085E290E025E230E0F901208124
:100350002F7BFC01208381E290E0FC01108282E28D
:1003600090E02FEFFC01208300000F90DF91CF91F0
:1003700008951F93CF93DF93CDB7DEB754DF81E2AB
:1003800090E0FC01108282E290E02FEFFC012083DC
:1003900085E290E025E230E0F90120812F7EFC012A
:1003A000208385E290E025E230E0F901208120629F
:1003B000FC01208385E290E025E230E0F901208114
:1003C0002064FC0120830000000000000000000009
:1003D000000080E290E0FC01108185E290E025E2DF
:1003E00030E0F90120812F7BFC012083812FDF91F8
:1003F000CF911F910895CF93DF931F92CDB7DEB7B2
:10040000898311DF85E290E025E230E0F901208167
:100410002061FC01208385E290E025E230E0F901D3
:1004200020812F7DFC01208385E290E025E230E0F1
:10043000F90120812064FC01208381E290E02FEF0C
:10044000FC01208382E290E02981FC0120830000EE
:100450000000000000000000000085E290E025E2BE
:1004600030E0F90120812F7BFC01208381E290E0C4
:10047000FC01108282E290E02FEFFC01208300005B
:100480000F90DF91CF910895CF93DF93CDB7DEB773
:1004900083DE88E325DF81E023DF8CE390E05CDE10
:1004A00086E01EDF8CE01CDF82E01ADF80E818DFC8
:1004B00040E060E084E990E06ED041E061E084E9F2
:1004C00090E069D042E062E084E990E064D043E0EB
:1004D00063E084E990E05FD044E064E084E990E088
:1004E0005AD045E065E084E990E055D046E066E00A
:1004F00084E990E050D047E067E084E990E04BD099
:100500000000DF91CF910895CF93DF93CDB7DEB791
:1005100082E0E6DE0000DF91CF910895CF93DF9374
:10052000CDB7DEB781E0DCDE0000DF91CF9108952A
:100530001F93CF93DF9300D0CDB7DEB789836A8353
:100540008A81882F90E08130910571F08230910589
:100550001CF4892B39F014C08230910549F00397BF
:1005600059F00EC019810DC0898110E4180F09C01F
:10057000898114E1180F05C0898114E5180F01C0A5
:100580001981812F8068ACDE00000F900F90DF9101
:10059000CF911F9108951F93CF93DF93CDB7DEB70F
:1005A00028970FB6F894DEBF0FBECDBF9E838D8314
:1005B0006F834887DEDE8F7789838885880F880F71
:1005C000880F88878F81880F880F880F8F8310E0AE
:1005D0001BC08885810F806483DE8F81282F30E0E7
:1005E000812F90E0820F931F2D813E81820F931FF8
:1005F0009B838A838A819B81FC0184918C838C817B
:10060000FADE812F11E0180F183018F38981806805
:1006100067DE000028960FB6F894DEBF0FBECDBF90
:10062000DF91CF911F9108951F93CF93DF9300D057
:100630001F92CDB7DEB79A8389836B8389819A81B4
:10064000892B91F010E00CC0812F90E029813A8134
:10065000820F931FFC018081CEDE812F11E0180FE5
:100660008B81181788F301C000000F900F900F9036
:10067000DF91CF911F910895CF93DF93CDB7DEB770
:1006800084E290E024E230E0F90120812068FC015E
:10069000208387E290E027E0FC01208383E390E061
:1006A00023E330E0F90120812360FC01208380E016
:1006B00090E0DF91CF910895CF93DF93CDB7DEB770
:1006C0008AE690E02AE630E0F90120812061FC0111
:1006D00020838DE390E02DE330E0F9012081206458
:1006E000FC01208386E090E0DF91CF910895CF93C5
:1006F000DF93CDB7DEB780EB90E028E0FC012083EC
:1007000080EB90E020EB30E0F90120812660FC01D5
:10071000208382EB90E0FC01108283EB90E02BE9D8
:10072000FC01208380E790E022E0FC01208382E04E
:1007300090E0DF91CF910895CF93DF93CDB7DEB7EF
:100740008CE790E02CE730E0F90120812F77FC0165
:1007500020838CE790E02CE730E0F90120812064D1
:10076000FC0120838CE790E02CE730E0F901208148
:10077000207EFC0120838CE790E02CE730E0F9013B
:1007800020812F7DFC0120838BE790E02BE730E078
:10079000F9012081287FFC0120838AE790E02AE785
:1007A00030E0F90120812760FC0120838AE790E096
:1007B0002AE730E0F9012081286AFC01208380E0EB
:1007C00090E0DF91CF910895CF93DF93CDB7DEB75F
:1007D00010921E0110921D01109225011092240109
:1007E00053DE9CDE91DE65E086E091E01DDF81E076
:1007F00090E0DF91CF910895CF93DF93CDB7DEB72F
:1008000080911D0190911E01019690931E0180938D
:100810001D01039730F081E090E090931E018093DA
:100820001D017CDE71DE80911D0190911E01880FFB
:10083000991F80509F4FFC01808191814BD3282FBD
:1008400080911D0190911E01880F991F80509F4F2C
:10085000FC0180819181622FE7DE80E090E0DF91F2
:10086000CF910895CF93DF93CDB7DEB780911D016F
:1008700090911E019C012150310930931E0120935B
:100880001D01029730F482E090E090931E01809366
:100890001D0144DE39DE80911D0190911E01880FFB
:1008A000991F80509F4FFC018081918113D3282F85
:1008B00080911D0190911E01880F991F80509F4FBC
:1008C000FC0180819181622FAFDE80E090E0DF91BA
:1008D000CF910895CF93DF93CDB7DEB780912301F9
:1008E000882F90E0887F992780329105A1F081328E
:1008F000910534F48830910581F0409751F010C093
:100900008034910521F08038910549F009C074DFE9
:1009100007C0A8DF05C0000003C0000001C0000040
:1009200080E090E0DF91CF910895CF93DF93CDB732
:10093000DEB780912301882F90E0887F992780324D
:100940009105A1F08132910534F48830910581F050
:10095000409751F010C08034910521F08038910506
:1009600049F009C049DF07C07DDF05C0000003C0B2
:10097000000001C0000080E090E0DF91CF91089579
:10098000CF93DF9300D000D0CDB7DEB79A838983B1
:100990007C836B8380912301882F90E0887F992747
:1009A0008032910509F44FC08132910544F48830BA
:1009B000910509F47CC0409709F459C0A3C0803464
:1009C000910501F18038910509F09CC080912401C6
:1009D0009091250181709927892B51F080912401F4
:1009E000909125018E7F90932501809324018AC0E8
:1009F000809124019091250181609093250180933D
:100A0000240180C080912401909125018170992753
:100A1000892BB9F029813A818B819C81820F931FA8
:100A2000FC0180818A3708F066C029813A818B8178
:100A30009C81820F931FFC0120812F5FFC0120838A
:100A40005AC0DADE58C0809124019091250181704E
:100A50009927892B09F451C08B819C81892B09F43A
:100A60004CC08B819C8101979C838B8346C0809175
:100A700024019091250181709927892BB1F029815A
:100A80003A818B819C81820F931FFC01808182348B
:100A9000B0F129813A818B819C81820F931FFC01E7
:100AA00020812150FC0120832AC0DCDE28C08091F7
:100AB00024019091250181709927892B11F18B8157
:100AC0009C810F97F0F48B819C8101969C838B8392
:100AD00029813A818B819C81820F931F21E4FC0143
:100AE00020838B819C81019629813A81820F931FFB
:100AF000FC01108206C0000005C0000003C0000019
:100B000001C000008B819C810F900F900F900F907F
:100B1000DF91CF910895CF93DF931F92CDB7DEB7CA
:100B200080912601882331F08091260181508093A5
:100B3000260160C080911F018093260180912201CF
:100B40008F71898380912201882F90E0807E992780
:100B500080349105B9F08038910519F08097C9F07B
:100B600027C08981880F89838981882F90E08072CE
:100B70009927892BE1F089818160898389818F7D23
:100B8000898315C089818095898389818F71898343
:100B90000FC08981882F90E081709927892B19F0E7
:100BA00089818062898389818695898301C000005B
:100BB00080912201982F907E8981892B8093220138
:100BC00084E390E0FC01808184E390E0298123703C
:100BD000FC012083898186958695898388E290E04F
:100BE00028E230E0F9012081322F387F2981232B40
:100BF000FC01208300000F90DF91CF910895CF93E7
:100C0000DF93CDB7DEB76D970FB6F894DEBF0FBE9A
:100C1000CDBF8FE089831A8281E48D871E8684E4AC
:100C20008093220184E680931F011092260124DD27
:100C3000898342DD89835BDD89837EDD8983C4DD31
:100C400089838AE790E02AE730E0F9012081206477
:100C5000FC012083789489818F5F89838AE790E003
:100C60002AE730E0F9012081277FFC012083809171
:100C70002001909121019C01CE01039649E050E0B2
:100C8000BC01C90130D18AE790E02AE730E0F901E0
:100C900020812860FC01208380911C018823E1F0E1
:100CA00080911D0190911E018130910541F08130AC
:100CB000910518F0029729F00DC00CDE0BC035DE4F
:100CC00009C08A81282F30E0CE010D96B90158DE87
:100CD0008A83000010921C0180911D0190911E01D9
:100CE000029761F461E080E023DCCE010D96F2D042
:100CF000282FCE010D96622F97DCADCF61E085E005
:100D000017DC66E085E191E08FDC61E085E010DCD6
:100D1000CE010396DFD0282FCE010396622F84DC0C
:100D20009ACF1F920F9200905F000F9211240090B3
:100D30005B000F928F939F93EF93FF93CF93DF937B
:100D4000CDB7DEB781E080931C0186E290E0FC0124
:100D50008081809323010000DF91CF91FF91EF917B
:100D60009F918F910F9000925B000F9000925F0017
:100D70000F901F9018951F920F9200905F000F9296
:100D8000112400905B000F922F933F934F935F933A
:100D90006F937F938F939F93AF93BF93EF93FF9343
:100DA000CF93DF93CDB7DEB7F89480912001909177
:100DB00021018535934020F08FE1809322012EC0E0
:100DC00080912001909121018B3A924020F08FE098
:100DD0008093220123C080912001909121018115EF
:100DE000924020F087E08093220118C0809120017A
:100DF000909121018635914020F083E0809322017B
:100E00000DC080912001909121018B3A910520F035
:100E100081E08093220102C01092220178947BDE4F
:100E20000000DF91CF91FF91EF91BF91AF919F9122
:100E30008F917F916F915F914F913F912F910F9083
:100E400000925B000F9000925F000F901F9018952A
:100E50001F920F9200905F000F92112400905B0090
:100E60000F922F933F938F939F93EF93FF93CF9383
:100E7000DF93CDB7DEB788E790E0FC018081882F53
:100E800090E0909321018093200189E790E0FC019C
:100E90008081882F90E0982F88279C0180912001E5
:100EA00090912101820F931F909321018093200143
:100EB0000000DF91CF91FF91EF919F918F913F9132
:100EC0002F910F9000925B000F9000925F000F90A7
:100ED0001F901895FC0101900020E9F780959095EE
:100EE0008E0F9F1F08954532510518F4423008F0C7
:100EF00004C0FB011082CB010895BB274A3031F4B6
:100F0000992322F4BDE2909581959F4F01C0BB27A4
:100F1000FB015527AA27880F991FAA1FA41710F0B5
:100F2000A41B83955051B9F7A05DAA3308F0A95DC1
:100F3000A193009779F7B111B1931192CB0100C041
:100F4000DC01FC01672F71917723E1F7329704C030
:100F50007C916D9370836291AE17BF07C8F30895BB
:040F6000F894FFCF33
:100F640006010C01100148656C6C6F00414443009C
:0C0F74005465787400202020202020000C
:00000001FF
