S01000004175746F537973322E737265630A
S11300008DC00000A8C00000A6C00000A4C000006D
S1130010A2C00000A0C000009EC00000B4C4000044
S11300209AC00000DAC4000096C0000094C000002A
S113003092C0000090C000008EC000008CC0000080
S11300408AC0000088C0000086C0000084C0000090
S113005082C0000080C000007EC000007CC00000A0
S11300607AC0000027C5000076C0000074C00000FC
S113007072C0000070C000006EC000006CC00000C0
S11300806AC0000068C0000066C0000064C00000D0
S113009062C00000001F000000001F00001F1010BD
S11300A010101F00001F181818181F00001F1C1C18
S11300B01C1C1F00001F1E1E1E1E1F00001F1F1FD2
S11300C01F1F1F0003070F1F0F070300001F1F1F21
S11300D01F1F1F001B1B1B1B1B1B1B00181C1E1F91
S11300E01E1C18000004040E0E1F1F00001F1F0E0C
S11300F00E0404000000000000000000000E1915AA
S1130100130E0000000E1515150E0000000E131539
S1130110190E0000000E111F110E000011241FBE45
S1130120CFEFD0E1DEBFCDBF11E0A0E0B1E0E8EC5D
S1130130FBE000E00BBF02C007900D92AC30B107AA
S1130140D9F721E0ACE0B1E001C01D92A331B207C0
S1130150E1F7BED337C554CFCF93DF9300D000D09F
S11301601F92CDB7DEB78D8380EA9FE09A8389839F
S11301704D8129813A81822F932F0197F1F74A9576
S1130180D1F79C838B8300000F900F900F900F90FA
S11301900F90DF91CF910895CF93DF93CDB7DEB762
S11301A085E290E025E230E0F90120812F7EFC0118
S11301B0208385E290E025E230E0F90120812F7D63
S11301C0FC01208385E290E025E230E0F901208102
S11301D02F7BFC01208384E290E024E230E0F901EB
S11301E020812061FC01208384E290E024E230E05D
S11301F0F90120812062FC01208384E290E024E262
S113020030E0F90120812064FC01208381E290E048
S1130210FC01108282E290E02FEFFC0120830000B9
S1130220DF91CF910895CF93DF93CDB7DEB785E209
S113023090E025E230E0F90120812F7EFC0120834B
S113024081E290E0FC01108282E290E02FEFFC0159
S1130250208385E290E025E230E0F90120812062EC
S1130260FC01208385E290E025E230E0F901208161
S11302702064FC0120830000000000001EC085E211
S113028090E025E230E0F90120812F7BFC012083FE
S113029000000000000000000000000085E290E083
S11302A025E230E0F90120812064FC012083000074
S11302B00000000000000000000080E290E0FC016B
S11302C080818823E4F285E290E025E230E0F901C0
S11302D020812F7BFC0120830000DF91CF910895C2
S11302E0CF93DF931F92CDB7DEB789839CDF85E27E
S11302F090E025E230E0F90120812F7EFC0120838B
S113030085E290E025E230E0F90120812F7DFC01B7
S1130310208385E290E025E230E0F9012081206429
S1130320FC01208381E290E02FEFFC01208382E234
S113033090E02981FC0120830000000000000000FF
S11303400000000085E290E025E230E0F901208120
S11303502F7BFC01208381E290E0FC01108282E289
S113036090E02FEFFC01208300000F90DF91CF91EC
S113037008951F93CF93DF93CDB7DEB754DF81E2A7
S113038090E0FC01108282E290E02FEFFC012083D8
S113039085E290E025E230E0F90120812F7EFC0126
S11303A0208385E290E025E230E0F901208120629B
S11303B0FC01208385E290E025E230E0F901208110
S11303C02064FC0120830000000000000000000005
S11303D0000080E290E0FC01108185E290E025E2DB
S11303E030E0F90120812F7BFC012083812FDF91F4
S11303F0CF911F910895CF93DF931F92CDB7DEB7AE
S1130400898311DF85E290E025E230E0F901208163
S11304102061FC01208385E290E025E230E0F901CF
S113042020812F7DFC01208385E290E025E230E0ED
S1130430F90120812064FC01208381E290E02FEF08
S1130440FC01208382E290E02981FC0120830000EA
S11304500000000000000000000085E290E025E2BA
S113046030E0F90120812F7BFC01208381E290E0C0
S1130470FC01108282E290E02FEFFC012083000057
S11304800F90DF91CF910895CF93DF93CDB7DEB76F
S113049083DE88E325DF81E023DF8CE390E05CDE0C
S11304A086E01EDF8CE01CDF82E01ADF80E818DFC4
S11304B040E060E084E990E06ED041E061E084E9EE
S11304C090E069D042E062E084E990E064D043E0E7
S11304D063E084E990E05FD044E064E084E990E084
S11304E05AD045E065E084E990E055D046E066E006
S11304F084E990E050D047E067E084E990E04BD095
S11305000000DF91CF910895CF93DF93CDB7DEB78D
S113051082E0E6DE0000DF91CF910895CF93DF9370
S1130520CDB7DEB781E0DCDE0000DF91CF91089526
S11305301F93CF93DF9300D0CDB7DEB789836A834F
S11305408A81882F90E08130910571F08230910585
S11305501CF4892B39F014C08230910549F00397BB
S113056059F00EC019810DC0898110E4180F09C01B
S1130570898114E1180F05C0898114E5180F01C0A1
S11305801981812F8068ACDE00000F900F90DF91FD
S1130590CF911F9108951F93CF93DF93CDB7DEB70B
S11305A028970FB6F894DEBF0FBECDBF9E838D8310
S11305B06F834887DEDE8F7789838885880F880F6D
S11305C0880F88878F81880F880F880F8F8310E0AA
S11305D01BC08885810F806483DE8F81282F30E0E3
S11305E0812F90E0820F931F2D813E81820F931FF4
S11305F09B838A838A819B81FC0184918C838C8177
S1130600FADE812F11E0180F183018F38981806801
S113061067DE000028960FB6F894DEBF0FBECDBF8C
S1130620DF91CF911F9108951F93CF93DF9300D053
S11306301F92CDB7DEB79A8389836B8389819A81B0
S1130640892B91F010E00CC0812F90E029813A8130
S1130650820F931FFC018081CEDE812F11E0180FE1
S11306608B81181788F301C000000F900F900F9032
S1130670DF91CF911F910895CF93DF93CDB7DEB76C
S113068084E290E024E230E0F90120812068FC015A
S1130690208387E290E027E0FC01208383E390E05D
S11306A023E330E0F90120812360FC01208380E012
S11306B090E0DF91CF910895CF93DF93CDB7DEB76C
S11306C08AE690E02AE630E0F90120812061FC010D
S11306D020838DE390E02DE330E0F9012081206454
S11306E0FC01208386E090E0DF91CF910895CF93C1
S11306F0DF93CDB7DEB780EB90E028E0FC012083E8
S113070080EB90E020EB30E0F90120812660FC01D1
S1130710208382EB90E0FC01108283EB90E02BE9D4
S1130720FC01208380E790E022E0FC01208382E04A
S113073090E0DF91CF910895CF93DF93CDB7DEB7EB
S11307408CE790E02CE730E0F90120812F77FC0161
S113075020838CE790E02CE730E0F90120812064CD
S1130760FC0120838CE790E02CE730E0F901208144
S1130770207EFC0120838CE790E02CE730E0F90137
S113078020812F7DFC0120838BE790E02BE730E074
S1130790F9012081287FFC0120838AE790E02AE781
S11307A030E0F90120812760FC0120838AE790E092
S11307B02AE730E0F9012081286AFC01208380E0E7
S11307C090E0DF91CF910895CF93DF93CDB7DEB75B
S11307D05BDEA4DE99DE63E080E091E025DF81E06A
S11307E090E0DF91CF910895CF93DF931F92CDB71F
S11307F0DEB780911201882331F08091120181507B
S11308008093120160C080910D0180931201809148
S113081010018F71898380911001882F90E0807E70
S1130820992780349105B9F08038910519F08097A3
S1130830C9F027C08981880F89838981882F90E036
S113084080729927892BE1F089818160898389816C
S11308508F7D898315C089818095898389818F7172
S113086089830FC08981882F90E081709927892B13
S113087019F089818062898389818695898301C081
S1130880000080911001982F907E8981892B80939C
S1130890100184E390E0FC01808184E390E02981ED
S11308A02370FC012083898186958695898388E25B
S11308B090E028E230E0F9012081322F387F29814D
S11308C0232BFC01208300000F90DF91CF9108952A
S11308D0CF93DF93CDB7DEB72B970FB6F894DEBF77
S11308E00FBECDBF8FE0898384E48093100184E63A
S11308F080930D0110921201BFDE8983DDDE8983AE
S1130900F6DE898319DF89835FDF89838AE790E0D4
S11309102AE730E0F90120812064FC0120837894E7
S113092089818F5F89838AE790E02AE730E0F901C3
S11309302081277FFC01208380910E0190910F017B
S11309409E012E5F3F4F4AE050E0B901FED08AE796
S113095090E02AE730E0F90120812860FC0120833F
S113096061E085E0E5DD66E084E091E05DDE61E084
S113097085E0DEDDCE010296DFD0282FCE0102967F
S1130980622F52DECDCF1F920F9200905F000F9224
S1130990112400905B000F928F939F93EF93FF932A
S11309A0CF93DF93CDB7DEB781E080930C0186E26D
S11309B090E0FC018081809311010000DF91CF91D0
S11309C0FF91EF919F918F910F9000925B000F9098
S11309D000925F000F901F9018951F920F92009045
S11309E05F000F92112400905B000F922F933F93AE
S11309F04F935F936F937F938F939F93AF93BF9323
S1130A00EF93FF93CF93DF93CDB7DEB7F894809144
S1130A100E0190910F018535934020F08FE1809372
S1130A2010012EC080910E0190910F018B3A9240DB
S1130A3020F08FE08093100123C080910E019091EB
S1130A400F018115924020F087E08093100118C0B7
S1130A5080910E0190910F018635914020F083E042
S1130A60809310010DC080910E0190910F018B3A7B
S1130A70910520F081E08093100102C010921001D2
S1130A807894B2DE0000DF91CF91FF91EF91BF9196
S1130A90AF919F918F917F916F915F914F913F9112
S1130AA02F910F9000925B000F9000925F000F90C7
S1130AB01F9018951F920F9200905F000F921124BF
S1130AC000905B000F922F933F938F939F93EF932C
S1130AD0FF93CF93DF93CDB7DEB788E790E0FC01B7
S1130AE08081882F90E090930F0180930E0189E715
S1130AF090E0FC018081882F90E0982F88279C014A
S1130B0080910E0190910F01820F931F90930F011A
S1130B1080930E010000DF91CF91FF91EF919F919F
S1130B208F913F912F910F9000925B000F90009254
S1130B305F000F901F901895FC0101900020E9F7C9
S1130B40809590958E0F9F1F08954532510518F496
S1130B50423008F004C0FB011082CB010895BB278A
S1130B604A3031F4992322F4BDE2909581959F4F48
S1130B7001C0BB27FB015527AA27880F991FAA1F6D
S1130B80A41710F0A41B83955051B9F7A05DAA33A4
S1130B9008F0A95DA193009779F7B111B19311926F
S1130BA0CB0100C0DC01FC01672F71917723E1F7D1
S1130BB0329704C07C916D9370836291AE17BF0726
S10B0BC0C8F30895F894FFCF77
S10F0BC841444300202020202020000095
S9030000FC
