S01000004175746F537973322E737265630A
S113000049C0000057C0000055C0000053C00000A4
S113001051C000004FC000004DC000008DC1000061
S113002049C00000B3C1000045C0000043C0000047
S113003041C000003FC000003DC000003BC00000C4
S113004039C0000037C0000035C0000033C00000D4
S113005031C000002FC000002DC000002BC00000E4
S113006029C0000000C2000025C0000023C0000019
S113007021C000001FC000001DC000001BC0000004
S113008019C0000017C0000015C0000013C0000014
S113009011C0000011241FBECFEFD0E1DEBFCDBFE1
S11300A021E0A0E0B1E001C01D92A730B207E1F762
S11300B01ED11BC2A5CFCF93DF93CDB7DEB784E2A9
S11300C090E024E230E0F90120812068FC012083E3
S11300D087E290E027E0FC01208383E390E023E3C0
S11300E030E0F90120812360FC01208380E090E06E
S11300F0DF91CF910895CF93DF93CDB7DEB78AE632
S113010090E02AE630E0F90120812061FC0120839F
S11301108DE390E02DE330E0F90120812064FC01BF
S1130120208386E090E0DF91CF910895CF93DF9311
S1130130CDB7DEB780EB90E028E0FC01208380EBB4
S113014090E020EB30E0F90120812660FC0120835F
S113015082EB90E0FC01108283EB90E02BE9FC0140
S1130160208380E790E022E0FC01208382E090E09D
S1130170DF91CF910895CF93DF93CDB7DEB78CE7AE
S113018090E02CE730E0F90120812F77FC012083F7
S11301908CE790E02CE730E0F90120812064FC0139
S11301A020838CE790E02CE730E0F9012081207E69
S11301B0FC0120838CE790E02CE730E0F9012081FA
S11301C02F7DFC0120838BE790E02BE730E0F901E1
S11301D02081287FFC0120838AE790E02AE730E031
S11301E0F90120812760FC0120838AE790E02AE757
S11301F030E0F9012081286AFC01208380E090E04E
S1130200DF91CF910895CF93DF931F92CDB7DEB7DF
S113021080910601882331F08091060181508093FA
S1130220060160C080910101809306018091040160
S11302308F71898380910401882F90E0807E9927B3
S113024080349105B9F08038910519F08097C9F090
S113025027C08981880F89838981882F90E08072E3
S11302609927892BE1F089818160898389818F7D38
S1130270898315C089818095898389818F71898358
S11302800FC08981882F90E081709927892B19F0FC
S113029089818062898389818695898301C0000070
S11302A080910401982F907E8981892B8093040189
S11302B084E390E0FC01808184E390E02981237051
S11302C0FC012083898186958695898388E290E064
S11302D028E230E0F9012081322F387F2981232B55
S11302E0FC01208300000F90DF91CF910895CF93FC
S11302F0DF931F92CDB7DEB78FE0898384E48093C8
S1130300040184E68093010110920601D4DE8983FE
S1130310F2DE89830BDF89832EDF89838AE790E00D
S11303202AE730E0F90120812064FC0120837894DD
S113033089818F5F8983FCCF1F920F9200905F00A9
S11303400F92112400905B000F928F939F93EF9371
S1130350FF93CF93DF93CDB7DEB781E080930001A5
S113036086E290E0FC018081809305010000DF912A
S1130370CF91FF91EF919F918F910F9000925B002D
S11303800F9000925F000F901F9018951F920F928C
S113039000905F000F92112400905B000F922F9346
S11303A03F934F935F936F937F938F939F93AF93F9
S11303B0BF93EF93FF93CF93DF93CDB7DEB7F8945A
S11303C080910201909103018535934020F08FE1E3
S11303D0809304012EC080910201909103018B3A15
S11303E0924020F08FE08093040123C080910201A9
S11303F0909103018115924020F087E080930401DD
S113040018C080910201909103018635914020F03B
S113041083E0809304010DC0809102019091030157
S11304208B3A910520F081E08093040102C0109280
S113043004017894E8DE0000DF91CF91FF91EF9101
S1130440BF91AF919F918F917F916F915F914F91E8
S11304503F912F910F9000925B000F9000925F00EC
S11304600F901F9018951F920F9200905F000F92AB
S1130470112400905B000F922F933F938F939F93CF
S1130480EF93FF93CF93DF93CDB7DEB788E790E088
S1130490FC018081882F90E09093030180930201F6
S11304A089E790E0FC018081882F90E0982F8827CD
S11304B09C018091020190910301820F931F9093FC
S11304C00301809302010000DF91CF91FF91EF912E
S11304D09F918F913F912F910F9000925B000F900D
S11104E000925F000F901F901895F894FFCFC4
S9030000FC
