:1000000049C0000057C0000055C0000053C00000A8
:1000100051C000004FC000004DC00000F7C00000FC
:1000200049C0000047C0000045C0000043C00000B8
:1000300041C000003FC000003DC000003BC00000C8
:1000400039C0000037C0000035C0000033C00000D8
:1000500031C000002FC000002DC000002BC00000E8
:1000600029C0000027C0000025C0000023C00000F8
:1000700021C000001FC000001DC000001BC0000008
:1000800019C0000017C0000015C0000013C0000018
:1000900011C0000011241FBECFEFD0E1DEBFCDBFE5
:1000A00021E0A0E0B1E001C01D92A230B207E1F76B
:1000B0003DD0D5C0A5CFCF93DF93CDB7DEB784E2D7
:1000C00090E024E230E0F90120812068FC012083E7
:1000D00087E290E027E0FC01208383E390E023E3C4
:1000E00030E0F90120812360FC01208380E090E072
:1000F000DF91CF910895CF93DF93CDB7DEB78AE636
:1001000090E02AE630E0F90120812061FC012083A3
:100110008DE390E02DE330E0F90120812064FC01C3
:10012000208386E090E0DF91CF910895CF93DF9315
:100130001F92CDB7DEB78FE08983BDDF8983DBDF18
:100140008983789480910001882309F45EC08091AE
:100150000101882F90E0887F99278032910519F15D
:100160008132910534F48830910589F1409729F165
:1001700038C08034910569F08038910591F588E2A6
:1001800090E028E230E0F90120812460FC01208326
:100190003AC088E290E028E230E0F9012081226054
:1001A000FC01208330C088E290E028E230E0F901D1
:1001B00020812160FC01208326C084E390E024E3B9
:1001C00030E0F90120812260FC0120831CC084E31F
:1001D00090E024E330E0F90120812160FC012083DC
:1001E00012C088E290E028E230E0F9012081287F07
:1001F000FC01208384E390E0FC01808184E390E0B3
:10020000FC0110820000109200019CCF1F920F92FF
:1002100000905F000F92112400905B000F928F936B
:100220009F93EF93FF93CF93DF93CDB7DEB781E03A
:100230008093000186E290E0FC01808180930101BF
:10024000DF91CF91FF91EF919F918F910F9000924D
:100250005B000F9000925F000F901F901895F8942C
:02026000FFCFCE
:00000001FF
