:100000008DC00000A9C00000A7C00000A5C000006E
:10001000A3C00000A1C000009FC00000AEC7000048
:100020009BC00000D4C7000097C0000095C000002E
:1000300093C0000091C000008FC000008DC0000080
:100040008BC0000089C0000087C0000085C0000090
:1000500083C0000081C000007FC000007DC00000A0
:100060007BC000000C94540877C0000075C00000ED
:1000700073C0000071C000006FC000006DC00000C0
:100080006BC0000069C0000067C0000065C00000D0
:1000900063C00000001F000000001F00001F1010C0
:1000A00010101F00001F181818181F00001F1C1C1C
:1000B0001C1C1F00001F1E1E1E1E1F00001F1F1FD6
:1000C0001F1F1F0003070F1F0F070300001F1F1F25
:1000D0001F1F1F001B1B1B1B1B1B1B00181C1E1F95
:1000E0001E1C18000004040E0E1F1F00001F1F0E10
:1000F0000E0404000000000000000000000E1915AE
:10010000130E0000000E1515150E0000000E13153D
:10011000190E0000000E111F110E000011241FBE49
:10012000CFEFD0E1DEBFCDBF11E0A0E0B1E0ECEB5E
:10013000F1E100E00BBF02C007900D92A233B107BE
:10014000D9F721E0A2E3B1E001C01D92AD33B207BF
:10015000E1F71BD60C94DC0853CFCF93DF9300D08C
:1001600000D01F92CDB7DEB78D8380EA9FE09A83DF
:1001700089834D8129813A81822F932F0197F1F74D
:100180004A95D1F79C838B8300000F900F900F90BE
:100190000F900F90DF91CF910895CF93DF93CDB75C
:1001A000DEB785E290E025E230E0F90120812F7E84
:1001B000FC01208385E290E025E230E0F901208116
:1001C0002F7DFC01208385E290E025E230E0F901FB
:1001D00020812F7BFC01208384E290E024E230E048
:1001E000F90120812061FC01208384E290E024E277
:1001F00030E0F90120812062FC01208384E290E05C
:1002000024E230E0F90120812064FC01208381E2B6
:1002100090E0FC01108282E290E02FEFFC0120834D
:100220000000DF91CF910895CF93DF93CDB7DEB774
:1002300085E290E025E230E0F90120812F7EFC018B
:10024000208381E290E0FC01108282E290E02FEFB7
:10025000FC01208385E290E025E230E0F901208175
:100260002062FC01208385E290E025E230E0F90184
:1002700020812064FC0120830000000000001EC0DB
:1002800085E290E025E230E0F90120812F7BFC013E
:10029000208300000000000000000000000085E254
:1002A00090E025E230E0F90120812064FC01208308
:1002B00000000000000000000000000080E290E06C
:1002C000FC0180818823E4F285E290E025E230E0C1
:1002D000F90120812F7BFC0120830000DF91CF9169
:1002E0000895CF93DF931F92CDB7DEB789839CDF4C
:1002F00085E290E025E230E0F90120812F7EFC01CB
:10030000208385E290E025E230E0F90120812F7D15
:10031000FC01208385E290E025E230E0F9012081B4
:100320002064FC01208381E290E02FEFFC01208318
:1003300082E290E02981FC0120830000000000009F
:1003400000000000000085E290E025E230E0F901C5
:1003500020812F7BFC01208381E290E0FC01108250
:1003600082E290E02FEFFC01208300000F90DF91EC
:10037000CF9108951F93CF93DF93CDB7DEB754DFAE
:1003800081E290E0FC01108282E290E02FEFFC011C
:10039000208385E290E025E230E0F90120812F7E84
:1003A000FC01208385E290E025E230E0F901208124
:1003B0002062FC01208385E290E025E230E0F90133
:1003C00020812064FC012083000000000000000068
:1003D0000000000080E290E0FC01108185E290E0E6
:1003E00025E230E0F90120812F7BFC012083812F61
:1003F000DF91CF911F910895CF93DF931F92CDB7D7
:10040000DEB7898311DF85E290E025E230E0F90173
:1004100020812061FC01208385E290E025E230E02C
:10042000F90120812F7DFC01208385E290E025E207
:1004300030E0F90120812064FC01208381E290E01A
:100440002FEFFC01208382E290E02981FC012083D0
:1004500000000000000000000000000085E290E0C5
:1004600025E230E0F90120812F7BFC01208381E22D
:1004700090E0FC01108282E290E02FEFFC012083EB
:1004800000000F90DF91CF910895CF93DF93CDB708
:10049000DEB783DE88E325DF81E023DF8CE390E0B5
:1004A0005CDE86E01EDF8CE01CDF82E01ADF80E885
:1004B00018DF40E060E084E990E06ED041E061E068
:1004C00084E990E069D042E062E084E990E064D0A1
:1004D00043E063E084E990E05FD044E064E084E9D5
:1004E00090E05AD045E065E084E990E055D046E0E0
:1004F00066E084E990E050D047E067E084E990E06E
:100500004BD00000DF91CF910895CF93DF93CDB70B
:10051000DEB782E0E6DE0000DF91CF910895CF9351
:10052000DF93CDB7DEB781E0DCDE0000DF91CF9155
:1005300008951F93CF93DF9300D0CDB7DEB78983A3
:100540006A838A81882F90E08130910571F0823032
:1005500091051CF4892B39F014C08230910549F0C3
:10056000039759F00EC019810DC0898110E4180F4E
:1005700009C0898114E1180F05C0898114E5180F9D
:1005800001C01981812F8068ACDE00000F900F90B0
:10059000DF91CF911F9108951F93CF93DF93CDB734
:1005A000DEB728970FB6F894DEBF0FBECDBF9E838F
:1005B0008D836F834887DEDE8F7789838885880FF8
:1005C000880F880F88878F81880F880F880F8F8307
:1005D00010E01BC08885810F806483DE8F81282F07
:1005E00030E0812F90E0820F931F2D813E81820F9A
:1005F000931F9B838A838A819B81FC0184918C83D6
:100600008C81FADE812F11E0180F183018F38981E0
:10061000806867DE000028960FB6F894DEBF0FBE34
:10062000CDBFDF91CF911F9108951F93CF93DF939B
:1006300000D01F92CDB7DEB79A8389836B838981FF
:100640009A81892B91F010E00CC0812F90E02981D4
:100650003A81820F931FFC018081CEDE812F11E051
:10066000180F8B81181788F301C000000F900F90AE
:100670000F90DF91CF911F910895CF93DF93CDB766
:10068000DEB784E290E024E230E0F90120812068C6
:10069000FC01208387E290E027E0FC01208383E3D4
:1006A00090E023E330E0F90120812360FC01208306
:1006B00080E090E0DF91CF910895CF93DF93CDB7A5
:1006C000DEB78AE690E02AE630E0F9012081206179
:1006D000FC0120838DE390E02DE330E0F9012081DF
:1006E0002064FC01208386E090E0DF91CF910895A3
:1006F000CF93DF93CDB7DEB780EB90E028E0FC012D
:10070000208380EB90E020EB30E0F901208126602F
:10071000FC01208382EB90E0FC01108283EB90E0EF
:100720002BE9FC01208380E790E022E0FC0120839C
:1007300082E090E0DF91CF910895CF93DF93CDB722
:10074000DEB78CE790E02CE730E0F90120812F77CD
:10075000FC0120838CE790E02CE730E0F901208158
:100760002064FC0120838CE790E02CE730E0F90165
:100770002081207EFC0120838CE790E02CE730E094
:10078000F90120812F7DFC0120838BE790E02BE78E
:1007900030E0F9012081287FFC0120838AE790E086
:1007A0002AE730E0F90120812760FC0120838AE7F5
:1007B00090E02AE730E0F9012081286AFC012083DB
:1007C00080E090E0DF91CF910895CF93DF93CDB794
:1007D000DEB710923401109233011092370110925B
:1007E000360153DE9CDE91DE65E088E091E01DDF9E
:1007F00081E090E0DF91CF910895CF93DF9300D017
:10080000CDB7DEB79A8389838DEC90E029813A8158
:10081000232F3327FC0120838CEC90E02981FC01FD
:1008200020838AEC90E026E0FC01208389EC90E0B4
:1008300028E1FC01208300000F900F90DF91CF9101
:100840000895CF93DF931F92CDB7DEB78983000061
:1008500088EC90E0FC018081882F90E080729927DD
:10086000892BB1F38EEC90E02981FC01208380E09C
:100870000F90DF91CF910895CF93DF9300D000D0F8
:100880001F92CDB7DEB79C838B836D831A8219824A
:100890000FC08B819C819C012F5F3F4F3C832B833A
:1008A000FC018081CEDF89819A8101969A838983B8
:1008B0008D81282F30E089819A81821793074CF32C
:1008C00080E00F900F900F900F900F90DF91CF91DD
:1008D0000895CF93DF93CDB7DEB7000088EC90E0AA
:1008E000FC0180818823D4F78EEC90E0FC018081AC
:1008F000DF91CF910895CF93DF93CDB7DEB780918D
:100900003301909134010196909334018093330127
:10091000049730F081E090E09093340180933301AC
:10092000FEDDF3DD8091330190913401880F991F32
:1009300080509F4FFC0180819181F8D3282F8091B6
:10094000330190913401880F991F80509F4FFC0113
:1009500080819181622F69DE80E090E0DF91CF910C
:100960000895CF93DF93CDB7DEB780913301909197
:1009700034019C012150310930933401209333011B
:10098000029730F483E090E0909334018093330138
:10099000C6DDBBDD8091330190913401880F991F32
:1009A00080509F4FFC0180819181C0D3282F80917E
:1009B000330190913401880F991F80509F4FFC01A3
:1009C00080819181622F31DE80E090E0DF91CF91D4
:1009D0000895CF93DF93CDB7DEB780913B01882F89
:1009E00090E0887F992780329105A1F081329105AE
:1009F00034F48830910581F0409751F010C0803474
:100A0000910521F08038910549F009C074DF07C0D5
:100A1000A8DF05C0000003C0000001C0000080E0A6
:100A200090E0DF91CF910895CF93DF93CDB7DEB7FC
:100A300080913B01882F90E0887F99278032910533
:100A4000A1F08132910534F48830910581F040970E
:100A500051F010C08034910521F08038910549F0A3
:100A600009C049DF07C07DDF05C0000003C00000EA
:100A700001C0000080E090E0DF91CF910895CF9316
:100A8000DF93CDB7DEB780913B01882F90E0887F60
:100A900099278032910541F18132910534F48830F3
:100AA000910521F14097F1F024C080349105C1F007
:100AB0008038910509F01DC0809136019091370171
:100AC000892BB1F482E090E0909337018093360156
:100AD00060E088E02EDD66E08DE191E0A6DD08C0F3
:100AE0000ADF07C03EDF05C0000003C0000001C0F0
:100AF000000080E090E0DF91CF910895CF93DF93E5
:100B000000D000D0CDB7DEB79A8389837C836B8316
:100B100080913B01882F90E0887F99278032910552
:100B200009F45DC08132910544F48830910509F4DF
:100B300086C0409709F465C0ABC08034910581F14F
:100B40008038910509F0A4C0809136019091370159
:100B5000892B71F481E090E0909337018093360106
:100B600060E088E0E6DC66E084E291E05EDD90C073
:100B700010923701109236018DE063DE89819A81EF
:100B8000D5D2282F89819A81622F76DE8AE059DEBC
:100B900060E088E0CEDC66E08BE291E046DD78C084
:100BA00080913601909137010197B9F429813A81FA
:100BB0008B819C81820F931FFC0180818A3708F012
:100BC00060C029813A818B819C81820F931FFC0137
:100BD00020812F5FFC01208354C08DDE52C08091A4
:100BE000360190913701019709F04DC08B819C81AE
:100BF000892B09F448C08B819C8101979C838B834E
:100C000042C080913601909137010197B1F429815A
:100C10003A818B819C81820F931FFC0180818234F9
:100C2000A0F129813A818B819C81820F931FFC0165
:100C300020812150FC01208328C093DE26C08091B2
:100C4000360190913701019711F58B819C810F97A7
:100C5000F0F48B819C8101969C838B8329813A815E
:100C60008B819C81820F931F21E4FC0120838B8167
:100C70009C81019629813A81820F931FFC01108289
:100C800006C0000005C0000003C0000001C0000055
:100C90008B819C810F900F900F900F90DF91CF91DF
:100CA0000895CF93DF931F92CDB7DEB780913C01BB
:100CB000882331F080913C01815080933C0160C0D9
:100CC0008091350180933C0180913A018F71898335
:100CD00080913A01882F90E0807E99278034910599
:100CE000B9F08038910519F08097C9F027C0898143
:100CF000880F89838981882F90E080729927892BBA
:100D0000E1F089818160898389818F7D898315C024
:100D100089818095898389818F7189830FC08981B9
:100D2000882F90E081709927892B19F08981806242
:100D3000898389818695898301C0000080913A0169
:100D4000982F907E8981892B80933A0184E390E0EB
:100D5000FC01808184E390E029812370FC012083E1
:100D6000898186958695898388E290E028E230E043
:100D7000F9012081322F387F2981232BFC01208328
:100D800000000F90DF91CF910895CF93DF93CDB7FF
:100D9000DEB7A9970FB6F894DEBF0FBECDBF8FE0C8
:100DA00089831B8281E4898F1A8E84E480933A01BF
:100DB00084E68093350110923C015FDC89837DDC01
:100DC000898396DC8983B9DC8983FFDC898383E3AB
:100DD00090E013DD8AE790E02AE730E0F901208116
:100DE0002064FC012083789489818F5F89838AE75E
:100DF00090E02AE730E0F9012081277FFC01208381
:100E000080913801909139019C01CE01059649E00D
:100E100050E0BC01C90193D18AE790E02AE730E0B5
:100E2000F90120812860FC01208380913201882310
:100E300011F180913301909134018130910559F085
:100E40008130910530F08230910539F0039741F0FF
:100E500010C0BFDD0EC0E8DD0CC011DE1A8209C073
:100E60008B81282F30E0CE014996B90147DE8B8374
:100E70000000109232018091330190913401039768
:100E800061F461E080E055DBCE0149964FD1282F17
:100E9000CE014996622FC9DBA7CF80913301909193
:100EA0003401029709F04AC08091360190913701D0
:100EB000029709F03BC08A818A3098F50ADD8C835D
:100EC0008C818D3019F08C818A3029F41092370191
:100ED0001092360151C08C81B4DC8A81882F90E059
:100EE0009E01215F3F4F820F931F2C81FC012083C5
:100EF0008A818F5F8A838A81882F90E09E01215F9B
:100F00003F4F820F931FFC01108261E080E011DBF4
:100F1000CE010F960BD1282FCE010F96622F85DBC5
:100F200063CF10923701109236015ECF60E088E007
:100F300000DB66E08BE291E078DB56CF61E085E094
:100F4000F8DA66E08BE291E070DB61E085E0F1DAEF
:100F5000CE010596EBD0282FCE010596622F65DBDA
:100F6000CE010596E3D0282FCE010596622F84DCB2
:100F70008AE067DC8DE065DC37CF1F920F9200902E
:100F80005F000F92112400905B000F928F939F934C
:100F9000EF93FF93CF93DF93CDB7DEB781E08093DC
:100FA000320186E290E0FC01808180933B010000E9
:100FB000DF91CF91FF91EF919F918F910F900092D0
:100FC0005B000F9000925F000F901F9018951F928A
:100FD0000F9200905F000F92112400905B000F921F
:100FE0002F933F934F935F936F937F938F939F9331
:100FF000AF93BF93EF93FF93CF93DF93CDB7DEB75C
:10100000F89480913801909139018535934020F012
:101010008FE180933A012EC080913801909139017F
:101020008B3A924020F08FE080933A0123C0809168
:101030003801909139018115924020F087E080932A
:101040003A0118C08091380190913901863591405C
:1010500020F083E080933A010DC080913801909197
:1010600039018B3A910520F081E080933A0102C06A
:1010700010923A01789415DE0000DF91CF91FF9134
:10108000EF91BF91AF919F918F917F916F915F9100
:101090004F913F912F910F9000925B000F90009223
:1010A0005F000F901F9018951F920F9200905F00A5
:1010B0000F92112400905B000F922F933F938F9318
:1010C0009F93EF93FF93CF93DF93CDB7DEB788E77E
:1010D00090E0FC018081882F90E09093390180930B
:1010E000380189E790E0FC018081882F90E0982FFB
:1010F00088279C018091380190913901820F931FBC
:1011000090933901809338010000DF91CF91FF91D6
:10111000EF919F918F913F912F910F9000925B00E3
:101120000F9000925F000F901F901895FC010190A6
:101130000020E9F7809590958E0F9F1F0895453206
:10114000510518F4423008F004C0FB011082CB01B5
:101150000895BB274A3031F4992322F4BDE29095DB
:1011600081959F4F01C0BB27FB015527AA27880FF8
:10117000991FAA1FA41710F0A41B83955051B9F70B
:10118000A05DAA3308F0A95DA193009779F7B1118A
:10119000B1931192CB0100C0DC01FC01672F71916A
:1011A0007723E1F7329704C07C916D93708362914D
:0C11B000AE17BF07C8F30895F894FFCFF6
:1011BC0008010E011201180148656C6C6F00414466
:1011CC00430055534152540054657874006563686C
:1011DC006F202000696E7075742000202020202064
:0211EC002000E1
:00000001FF
